:100000000C942A000C9447000C9447000C945E0258
:100010000C9447000C942B020C9447000C9447005E
:100020000C9447000C9447000C9447000C94470034
:100030000C9447000C9447000C9447000C94470024
:100040000C9447000C9447000C9447000C94470014
:100050000C94470011241FBECFE5D8E0DEBFCDBF12
:1000600010E0A0E6B0E0EEE5FDE002C005900D92E4
:10007000A23BB107D9F710E0A2EBB0E001C01D929E
:10008000A73DB107E1F70E9491020C94AD060C94D4
:10009000000085B3806F85BB84B38F7084BBAA9A40
:1000A000AA9A93B3AA98AA9AAA9AAA9AAA9A83B33E
:1000B000AA9882958F70907F892B089525B32F7011
:1000C000982F907F922B95BBAA9AAA988295807FB1
:1000D000282B25BBAA9AAA98089585BBAA9AAA9804
:1000E00008950F931F93DF93CF930F92CDB7DEB791
:1000F0008E010F5F1F4FA898A99A0E94490089831B
:10010000F801808187FDF7CFA9988FEF84BB0F900E
:10011000CF91DF911F910F9108958FEF84BB84BB26
:10012000A898A998AA98AA9AAD9AAA980E9471002C
:1001300088E20E945E000E947100A8988CE00E94F4
:100140005E000E947100A89886E00E945E000E94F6
:1001500071000895A89882E00E945E000E947100DC
:100160000895A898615890E0019726E0880F991F9C
:100170002A95E1F7860F0E945E000E9471000895A3
:10018000A89881E00E945E000E9471000895A89ADC
:100190000E945E000E94710008951F93CF93DF9329
:1001A000EC0110E003C00E94C7001F5FFE01E10FD9
:1001B000F11D80818823B9F7DF91CF911F910895B8
:1001C000AF92BF92CF92DF92EF92FF920F931F9365
:1001D0002091BF003091C0004091C1005091C200F9
:1001E000E090CB00F090CC000091CD001091CE00BB
:1001F0002E193F09400B510B2093D3003093D400AC
:100200004093D5005093D6002091BF003091C0009C
:100210004091C1005091C2002093CB003093CC009C
:100220004093CD005093CE002091D3003091D40064
:100230004091D5005091D600621B730B840B950B37
:100240006093C7007093C8008093C9009093CA0060
:100250002091A2003091A3004091A4005091A500EC
:100260006091C7007091C8008091C9009091CA0048
:100270000E9479036093B2007093B3008093B4003E
:100280009093B5006091A6007091A7008091A8009E
:100290009091A900E090C700F090C8000091C900BB
:1002A0001091CA00A090C300B090C400C090C500D7
:1002B000D090C60028E230E040E050E00E94790390
:1002C000EA18FB080C091D09A80197010E9479038F
:1002D0006093BA007093BB008093BC009093BD0004
:1002E000E090B600F090B7000091B8001091B9000E
:1002F0006091AA007091AB008091AC009091AD002C
:100300002091C7003091C8004091C9005091CA00A7
:100310000E94790329E130E040E050E00E94790337
:1003200028EE33E040E050E00E949803E20EF31E16
:10033000041F151FE092B600F092B7000093B800BA
:100340001093B900A090CF00B090D000C090D10021
:10035000D090D2008091B2009091B300A091B400EF
:10036000B091B5002091BA003091BB004091BC0023
:100370005091BD00E090B600F090B7000091B80039
:100380001091B9008A0D9B1DAC1DBD1D820F931FDE
:10039000A41FB51F8E0D9F1DA01FB11F8093CF00FE
:1003A0009093D000A093D100B093D2008091CF0061
:1003B0009091D000A091D100B091D20080549F4183
:1003C000A040B04064F08FE39FE1A0E0B0E08093F4
:1003D000CF009093D000A093D100B093D200809131
:1003E000CF009091D000A091D100B091D20018160A
:1003F00019061A061B0664F081E090E0A0E0B0E068
:100400008093CF009093D000A093D100B093D200FE
:100410008091CF009091D000A091D100B091D200F6
:100420009BBD8ABD8091C7009091C800A091C90072
:10043000B091CA008093C3009093C400A093C500FC
:10044000B093C6001F910F91FF90EF90DF90CF9077
:10045000BF90AF9008951F920F920FB60F92112484
:100460002F933F934F935F936F937F938F939F93BC
:10047000AF93BF93EF93FF938CE384BD8091BE0055
:100480008F5F8093BE006091AE007091AF0080914D
:10049000B0009091B1000E94E000FF91EF91BF91F8
:1004A000AF919F918F917F916F915F914F913F910C
:1004B0002F910F900FBE0F901F9018951F920F92C3
:1004C0000FB60F9211248F939F93AF93BF93B09B5E
:1004D0000CC08091BF009091C000A091C100B0916C
:1004E000C2000196A11DB11D0BC08091BF0090916B
:1004F000C000A091C100B091C2000197A109B1094B
:100500008093BF009093C000A093C100B093C2003D
:10051000BF91AF919F918F910F900FBE0F901F9041
:100520001895EF92FF920F931F93DF93CF9300D014
:1005300000D00F92CDB7DEB71092BF001092C0006E
:100540001092C1001092C20017BA8FEF88BB80EFE3
:1005500081BB969A84B784BF8BB780628BBF87E0DC
:1005600085BD8CE384BD80E489BF82EA8FBD89E1CB
:100570008EBD0E948D000E94C00080E690E00E9427
:10058000CD0082E061E00E94B1008BE690E00E9425
:10059000CD0080E197E228EC30E0F9013197F1F7E6
:1005A0000197D9F70E94C0008AE790E00E94CD0031
:1005B00082E061E00E94B1008BE890E00E94CD00F3
:1005C00081E090E09BBD8ABD80E49FE197BD86BD40
:1005D000979A78948E010F5F1F4F3CE9E32E30E02D
:1005E000F32E8091BE008A30E0F386B382958F703F
:1005F00090E0A0E0B0E08093AE009093AF00A093B5
:10060000B000B093B1004091D3005091D4006091FC
:10061000D5007091D6002DB73EB7285030400FB6A8
:10062000F8943EBF0FBE2DBFEDB7FEB73196ADB704
:10063000BEB712961C930E931197F382E282448305
:100640005583668377830E94D5032DB73EB7285F15
:100650003F4F0FB6F8943EBF0FBE2DBF81E069E05B
:100660000E94B1008FE990E00E94CD0081E069E036
:100670000E94B100C8010E94CD004091AE0050918F
:10068000AF006091B0007091B1008DB79EB7089730
:100690000FB6F8949EBF0FBE8DBFEDB7FEB7319673
:1006A000ADB7BEB712961C930E931197F382E282F8
:1006B00044835583668377830E94D5032DB73EB765
:1006C000285F3F4F0FB6F8943EBF0FBE2DBF82E0AC
:1006D00069E00E94B1008FE990E00E94CD0082E0C5
:1006E00069E00E94B100C8010E94CD001092BE00D6
:1006F00078CF629FD001739FF001829FE00DF11DC2
:10070000649FE00DF11D929FF00D839FF00D749F8B
:10071000F00D659FF00D9927729FB00DE11DF91F37
:10072000639FB00DE11DF91FBD01CF011124089594
:1007300097FB092E05260ED057FD04D014D00AD001
:10074000001C38F450954095309521953F4F4F4F00
:100750005F4F0895F6F790958095709561957F4F5E
:100760008F4F9F4F0895A1E21A2EAA1BBB1BFD01BC
:100770000DC0AA1FBB1FEE1FFF1FA217B307E40780
:10078000F50720F0A21BB30BE40BF50B661F771FD8
:10079000881F991F1A9469F76095709580959095B8
:1007A0009B01AC01BD01CF010895AEE0B0E0EBEDDF
:1007B000F3E00C9484060D891E8986E08C831A83ED
:1007C00009838FEF9FE79E838D839E01275E3F4FB6
:1007D000CE0101966F89788DA9010E94F9032F81BE
:1007E0003885020F131FF80110822E96E4E00C9456
:1007F000A006ABE0B0E0EFEFF3E00C9476063C012E
:100800002B015A01FC0117821682838181FD03C0EE
:100810006FEF7FEFC6C19AE0892E1E010894211C5C
:10082000311CF3012381F20123FD859123FF819186
:100830002F01882309F4B2C1853239F423FD859153
:1008400023FF81912F01853229F490E0B3010E94AA
:10085000EC05E7CF982FFF24EE249924FFE1FF1544
:10086000D0F09B3269F09C3228F4903259F09332E8
:1008700091F40EC09D3249F0903369F441E024C0F8
:1008800052E0F52A84E0F82A28C098E0F92A25C029
:10089000E0E1FE2A22C0F7FC29C0892F80538A306C
:1008A00070F4F6FE05C0989C902C1124980E15C08B
:1008B000E89CE02C1124E80EF0E2FF2A0EC09E32E4
:1008C00029F4F6FC6BC140E4F42A07C09C3619F405
:1008D00050E8F52A02C0983649F4F20123FD9591BB
:1008E00023FF91912F01992309F0B8CF892F8554C7
:1008F000833018F08052833038F444E050E0A40E86
:10090000B51E5FE359830FC0933631F0933779F00A
:10091000933509F056C020C0F5018081898342E0FB
:1009200050E0A40EB51E610101E010E012C0F50117
:10093000C080D180F6FC03C06FEF7FEF02C0692D4D
:1009400070E042E050E0A40EB51EC6010E94E10531
:100950008C015FE7F52214C0F501C080D180F6FC60
:1009600003C06FEF7FEF02C0692D70E042E050E0FE
:10097000A40EB51EC6010E94D6058C0150E8F52ACA
:10098000F3FE07C01AC080E290E0B3010E94EC05BC
:10099000EA948E2D90E008171907A8F30EC0F6010F
:1009A000F7FC8591F7FE81916F0190E0B3010E9401
:1009B000EC05E110EA94015010400115110579F79A
:1009C000EAC0943611F0993669F5F7FE08C0F501D2
:1009D000208131814281538184E090E00AC0F50199
:1009E000808191819C01442737FD4095542F82E0FE
:1009F00090E0A80EB91E9FE6F92257FF09C0509556
:100A00004095309521953F4F4F4F5F4FE0E8FE2ACC
:100A1000CA01B901A1012AE030E00E941806D82ECF
:100A2000D21840C0953729F41F2D1F7E2AE030E0F0
:100A30001DC01F2D197F9F3661F0903720F4983527
:100A400009F0ACC00FC0903739F0983709F0A6C054
:100A500004C028E030E00AC0106114FD146020E1F9
:100A600030E004C014FD166020E132E017FF08C03A
:100A7000F501608171818281938144E050E008C07A
:100A8000F50180819181BC0180E090E042E050E07E
:100A9000A40EB51EA1010E941806D82ED2188FE709
:100AA000F82EF122F6FE0BC05EEFF522D91438F4D1
:100AB000F4FE07C0F2FC05C08FEEF82202C01D2D27
:100AC00001C0192DF4FE0DC0FE01ED0DF11D808158
:100AD000803319F499EEF92208C01F5FF2FE05C0B9
:100AE00003C08F2D867809F01F5F0F2DF3FC14C013
:100AF000F0FE0FC01E1510F09D2C0BC09D2C9E0CFF
:100B0000911A1E2D06C080E290E0B3010E94EC0510
:100B10001F5F1E15C0F304C01E1510F4E11A01C0BA
:100B2000EE2404FF0FC080E390E0B3010E94EC05C7
:100B300002FF1DC001FD03C088E790E00EC088E5FC
:100B400090E00BC0802F867891F001FF02C08BE20D
:100B500001C080E2F7FC8DE290E0B3010E94EC0559
:100B600006C080E390E0B3010E94EC059A94D9148A
:100B7000C0F3DA94F101ED0DF11D808190E0B30135
:100B80000E94EC05DD20A9F706C080E290E0B301E9
:100B90000E94EC05EA94EE20C1F743CEF301668192
:100BA0007781CB012B96E2E10C949206FC01059033
:100BB000615070400110D8F7809590958E0F9F1F5F
:100BC0000895FC016150704001900110D8F78095A4
:100BD00090958E0F9F1F08950F931F93CF93DF93D0
:100BE0008C01EB018B8181FF1BC082FF0DC02E8128
:100BF0003F818C819D812817390764F4E881F98150
:100C00000193F983E88306C0E885F985802F09956B
:100C1000892B31F48E819F8101969F838E8302C040
:100C20000FEF1FEFC801DF91CF911F910F91089532
:100C3000FA01AA27283051F1203181F1E8946F930D
:100C40006E7F6E5F7F4F8F4F9F4FAF4FB1E03ED0B3
:100C5000B4E03CD0670F781F891F9A1FA11D680F51
:100C6000791F8A1F911DA11D6A0F711D811D911D84
:100C7000A11D20D009F468943F912AE0269F1124F9
:100C80003019305D3193DEF6CF010895462F47705D
:100C9000405D4193B3E00FD0C9F7F6CF462F4F70B8
:100CA000405D4A3318F0495D31FD4052419302D016
:100CB000A9F7EACFB4E0A6959795879577956795BC
:100CC000BA95C9F700976105710508959B01AC01BC
:100CD0000A2E06945795479537952795BA95C9F7E3
:100CE000620F731F841F951FA01D08952F923F92BE
:100CF0004F925F926F927F928F929F92AF92BF922C
:100D0000CF92DF92EF92FF920F931F93CF93DF93D7
:100D1000CDB7DEB7CA1BDB0B0FB6F894DEBF0FBE34
:100D2000CDBF09942A88398848885F846E847D8481
:100D30008C849B84AA84B984C884DF80EE80FD8083
:100D40000C811B81AA81B981CE0FD11D0FB6F894F9
:0E0D5000DEBF0FBECDBFED010895F894FFCFBA
:100D5E00486F636176722E636F6D00444320536556
:100D6E0072766F204D6F746F720041637475616C93
:100D7E00203A2020202F32356D730044657369723E
:100D8E0065643A2020202F32356D730025690020CE
:100D9E002000080000000A0000000100000005000D
:020DAE00000043
:00000001FF
